{
  "_format": "hh-sol-artifact-1",
  "contractName": "PerklyVoucher",
  "sourceName": "contracts/perkly-voucher.sol",
  "abi": [
    {
      "inputs": [
        {
          "internalType": "uint256",
          "name": "subscriptionId",
          "type": "uint256"
        },
        {
          "internalType": "address",
          "name": "perklytokenAddr",
          "type": "address"
        }
      ],
      "stateMutability": "nonpayable",
      "type": "constructor"
    },
    {
      "inputs": [
        {
          "internalType": "address",
          "name": "have",
          "type": "address"
        },
        {
          "internalType": "address",
          "name": "want",
          "type": "address"
        }
      ],
      "name": "OnlyCoordinatorCanFulfill",
      "type": "error"
    },
    {
      "inputs": [
        {
          "internalType": "address",
          "name": "have",
          "type": "address"
        },
        {
          "internalType": "address",
          "name": "owner",
          "type": "address"
        },
        {
          "internalType": "address",
          "name": "coordinator",
          "type": "address"
        }
      ],
      "name": "OnlyOwnerOrCoordinator",
      "type": "error"
    },
    {
      "inputs": [],
      "name": "ZeroAddress",
      "type": "error"
    },
    {
      "anonymous": false,
      "inputs": [
        {
          "indexed": true,
          "internalType": "uint256",
          "name": "requestId",
          "type": "uint256"
        },
        {
          "indexed": true,
          "internalType": "address",
          "name": "selectedRecipient",
          "type": "address"
        },
        {
          "indexed": false,
          "internalType": "uint256",
          "name": "voucherId",
          "type": "uint256"
        },
        {
          "indexed": true,
          "internalType": "address",
          "name": "merchant",
          "type": "address"
        }
      ],
      "name": "AirdropCompleted",
      "type": "event"
    },
    {
      "anonymous": false,
      "inputs": [
        {
          "indexed": true,
          "internalType": "uint256",
          "name": "requestId",
          "type": "uint256"
        },
        {
          "indexed": false,
          "internalType": "address",
          "name": "merchant",
          "type": "address"
        },
        {
          "indexed": false,
          "internalType": "string",
          "name": "ipfsHash",
          "type": "string"
        },
        {
          "indexed": false,
          "internalType": "address[]",
          "name": "subscribers",
          "type": "address[]"
        }
      ],
      "name": "AirdropRequest",
      "type": "event"
    },
    {
      "anonymous": false,
      "inputs": [
        {
          "indexed": true,
          "internalType": "address",
          "name": "owner",
          "type": "address"
        },
        {
          "indexed": true,
          "internalType": "address",
          "name": "approved",
          "type": "address"
        },
        {
          "indexed": true,
          "internalType": "uint256",
          "name": "tokenId",
          "type": "uint256"
        }
      ],
      "name": "Approval",
      "type": "event"
    },
    {
      "anonymous": false,
      "inputs": [
        {
          "indexed": true,
          "internalType": "address",
          "name": "owner",
          "type": "address"
        },
        {
          "indexed": true,
          "internalType": "address",
          "name": "operator",
          "type": "address"
        },
        {
          "indexed": false,
          "internalType": "bool",
          "name": "approved",
          "type": "bool"
        }
      ],
      "name": "ApprovalForAll",
      "type": "event"
    },
    {
      "anonymous": false,
      "inputs": [
        {
          "indexed": false,
          "internalType": "uint256",
          "name": "_fromTokenId",
          "type": "uint256"
        },
        {
          "indexed": false,
          "internalType": "uint256",
          "name": "_toTokenId",
          "type": "uint256"
        }
      ],
      "name": "BatchMetadataUpdate",
      "type": "event"
    },
    {
      "anonymous": false,
      "inputs": [
        {
          "indexed": false,
          "internalType": "address",
          "name": "vrfCoordinator",
          "type": "address"
        }
      ],
      "name": "CoordinatorSet",
      "type": "event"
    },
    {
      "anonymous": false,
      "inputs": [
        {
          "indexed": false,
          "internalType": "uint256",
          "name": "_tokenId",
          "type": "uint256"
        }
      ],
      "name": "MetadataUpdate",
      "type": "event"
    },
    {
      "anonymous": false,
      "inputs": [
        {
          "indexed": true,
          "internalType": "address",
          "name": "from",
          "type": "address"
        },
        {
          "indexed": true,
          "internalType": "address",
          "name": "to",
          "type": "address"
        }
      ],
      "name": "OwnershipTransferRequested",
      "type": "event"
    },
    {
      "anonymous": false,
      "inputs": [
        {
          "indexed": true,
          "internalType": "address",
          "name": "from",
          "type": "address"
        },
        {
          "indexed": true,
          "internalType": "address",
          "name": "to",
          "type": "address"
        }
      ],
      "name": "OwnershipTransferred",
      "type": "event"
    },
    {
      "anonymous": false,
      "inputs": [
        {
          "indexed": true,
          "internalType": "address",
          "name": "subscriber",
          "type": "address"
        }
      ],
      "name": "SubscriberAdded",
      "type": "event"
    },
    {
      "anonymous": false,
      "inputs": [
        {
          "indexed": true,
          "internalType": "uint256",
          "name": "voucherId",
          "type": "uint256"
        }
      ],
      "name": "TokenBurn",
      "type": "event"
    },
    {
      "anonymous": false,
      "inputs": [
        {
          "indexed": true,
          "internalType": "address",
          "name": "from",
          "type": "address"
        },
        {
          "indexed": true,
          "internalType": "address",
          "name": "to",
          "type": "address"
        },
        {
          "indexed": true,
          "internalType": "uint256",
          "name": "tokenId",
          "type": "uint256"
        }
      ],
      "name": "Transfer",
      "type": "event"
    },
    {
      "anonymous": false,
      "inputs": [
        {
          "indexed": true,
          "internalType": "address",
          "name": "merchant",
          "type": "address"
        },
        {
          "indexed": false,
          "internalType": "uint8[]",
          "name": "discounts",
          "type": "uint8[]"
        }
      ],
      "name": "VoucherDiscountsSet",
      "type": "event"
    },
    {
      "anonymous": false,
      "inputs": [
        {
          "indexed": true,
          "internalType": "uint256",
          "name": "requestId",
          "type": "uint256"
        },
        {
          "indexed": true,
          "internalType": "address",
          "name": "selectedRecipient",
          "type": "address"
        }
      ],
      "name": "randomRecipientSelected",
      "type": "event"
    },
    {
      "inputs": [],
      "name": "acceptOwnership",
      "outputs": [],
      "stateMutability": "nonpayable",
      "type": "function"
    },
    {
      "inputs": [
        {
          "internalType": "address",
          "name": "to",
          "type": "address"
        },
        {
          "internalType": "uint256",
          "name": "tokenId",
          "type": "uint256"
        }
      ],
      "name": "approve",
      "outputs": [],
      "stateMutability": "nonpayable",
      "type": "function"
    },
    {
      "inputs": [
        {
          "internalType": "address",
          "name": "owner",
          "type": "address"
        }
      ],
      "name": "balanceOf",
      "outputs": [
        {
          "internalType": "uint256",
          "name": "",
          "type": "uint256"
        }
      ],
      "stateMutability": "view",
      "type": "function"
    },
    {
      "inputs": [
        {
          "internalType": "uint256",
          "name": "voucherId",
          "type": "uint256"
        }
      ],
      "name": "burn",
      "outputs": [],
      "stateMutability": "nonpayable",
      "type": "function"
    },
    {
      "inputs": [
        {
          "internalType": "uint256",
          "name": "tokenId",
          "type": "uint256"
        }
      ],
      "name": "getApproved",
      "outputs": [
        {
          "internalType": "address",
          "name": "",
          "type": "address"
        }
      ],
      "stateMutability": "view",
      "type": "function"
    },
    {
      "inputs": [
        {
          "internalType": "address",
          "name": "merchantAddress",
          "type": "address"
        },
        {
          "internalType": "address[]",
          "name": "subscribers",
          "type": "address[]"
        },
        {
          "internalType": "string",
          "name": "tokenUri",
          "type": "string"
        }
      ],
      "name": "initiateAirdrop",
      "outputs": [
        {
          "internalType": "uint256",
          "name": "requestId",
          "type": "uint256"
        }
      ],
      "stateMutability": "nonpayable",
      "type": "function"
    },
    {
      "inputs": [
        {
          "internalType": "address",
          "name": "owner",
          "type": "address"
        },
        {
          "internalType": "address",
          "name": "operator",
          "type": "address"
        }
      ],
      "name": "isApprovedForAll",
      "outputs": [
        {
          "internalType": "bool",
          "name": "",
          "type": "bool"
        }
      ],
      "stateMutability": "view",
      "type": "function"
    },
    {
      "inputs": [
        {
          "internalType": "address",
          "name": "",
          "type": "address"
        },
        {
          "internalType": "uint256",
          "name": "",
          "type": "uint256"
        }
      ],
      "name": "merchantVoucherDiscounts",
      "outputs": [
        {
          "internalType": "uint8",
          "name": "",
          "type": "uint8"
        }
      ],
      "stateMutability": "view",
      "type": "function"
    },
    {
      "inputs": [],
      "name": "name",
      "outputs": [
        {
          "internalType": "string",
          "name": "",
          "type": "string"
        }
      ],
      "stateMutability": "view",
      "type": "function"
    },
    {
      "inputs": [],
      "name": "owner",
      "outputs": [
        {
          "internalType": "address",
          "name": "",
          "type": "address"
        }
      ],
      "stateMutability": "view",
      "type": "function"
    },
    {
      "inputs": [
        {
          "internalType": "uint256",
          "name": "tokenId",
          "type": "uint256"
        }
      ],
      "name": "ownerOf",
      "outputs": [
        {
          "internalType": "address",
          "name": "",
          "type": "address"
        }
      ],
      "stateMutability": "view",
      "type": "function"
    },
    {
      "inputs": [],
      "name": "perklyToken",
      "outputs": [
        {
          "internalType": "contract IERC20",
          "name": "",
          "type": "address"
        }
      ],
      "stateMutability": "view",
      "type": "function"
    },
    {
      "inputs": [
        {
          "internalType": "uint256",
          "name": "requestId",
          "type": "uint256"
        },
        {
          "internalType": "uint256[]",
          "name": "randomWords",
          "type": "uint256[]"
        }
      ],
      "name": "rawFulfillRandomWords",
      "outputs": [],
      "stateMutability": "nonpayable",
      "type": "function"
    },
    {
      "inputs": [],
      "name": "s_vrfCoordinator",
      "outputs": [
        {
          "internalType": "contract IVRFCoordinatorV2Plus",
          "name": "",
          "type": "address"
        }
      ],
      "stateMutability": "view",
      "type": "function"
    },
    {
      "inputs": [
        {
          "internalType": "address",
          "name": "from",
          "type": "address"
        },
        {
          "internalType": "address",
          "name": "to",
          "type": "address"
        },
        {
          "internalType": "uint256",
          "name": "tokenId",
          "type": "uint256"
        }
      ],
      "name": "safeTransferFrom",
      "outputs": [],
      "stateMutability": "nonpayable",
      "type": "function"
    },
    {
      "inputs": [
        {
          "internalType": "address",
          "name": "from",
          "type": "address"
        },
        {
          "internalType": "address",
          "name": "to",
          "type": "address"
        },
        {
          "internalType": "uint256",
          "name": "tokenId",
          "type": "uint256"
        },
        {
          "internalType": "bytes",
          "name": "data",
          "type": "bytes"
        }
      ],
      "name": "safeTransferFrom",
      "outputs": [],
      "stateMutability": "nonpayable",
      "type": "function"
    },
    {
      "inputs": [
        {
          "internalType": "address",
          "name": "operator",
          "type": "address"
        },
        {
          "internalType": "bool",
          "name": "approved",
          "type": "bool"
        }
      ],
      "name": "setApprovalForAll",
      "outputs": [],
      "stateMutability": "nonpayable",
      "type": "function"
    },
    {
      "inputs": [
        {
          "internalType": "address",
          "name": "_vrfCoordinator",
          "type": "address"
        }
      ],
      "name": "setCoordinator",
      "outputs": [],
      "stateMutability": "nonpayable",
      "type": "function"
    },
    {
      "inputs": [
        {
          "internalType": "bytes4",
          "name": "interfaceId",
          "type": "bytes4"
        }
      ],
      "name": "supportsInterface",
      "outputs": [
        {
          "internalType": "bool",
          "name": "",
          "type": "bool"
        }
      ],
      "stateMutability": "view",
      "type": "function"
    },
    {
      "inputs": [],
      "name": "symbol",
      "outputs": [
        {
          "internalType": "string",
          "name": "",
          "type": "string"
        }
      ],
      "stateMutability": "view",
      "type": "function"
    },
    {
      "inputs": [
        {
          "internalType": "uint256",
          "name": "tokenId",
          "type": "uint256"
        }
      ],
      "name": "tokenURI",
      "outputs": [
        {
          "internalType": "string",
          "name": "",
          "type": "string"
        }
      ],
      "stateMutability": "view",
      "type": "function"
    },
    {
      "inputs": [
        {
          "internalType": "address",
          "name": "from",
          "type": "address"
        },
        {
          "internalType": "address",
          "name": "to",
          "type": "address"
        },
        {
          "internalType": "uint256",
          "name": "tokenId",
          "type": "uint256"
        }
      ],
      "name": "transferFrom",
      "outputs": [],
      "stateMutability": "nonpayable",
      "type": "function"
    },
    {
      "inputs": [
        {
          "internalType": "address",
          "name": "to",
          "type": "address"
        }
      ],
      "name": "transferOwnership",
      "outputs": [],
      "stateMutability": "nonpayable",
      "type": "function"
    }
  ],
  "bytecode": "0x6080604052735c210ef41cd1a72de73bf76ec39637bb0d3d7bee600c60006101000a81548173ffffffffffffffffffffffffffffffffffffffff021916908373ffffffffffffffffffffffffffffffffffffffff1602179055507f9e1344a1247c8a1785d0a4681a27152bffdb43666ae5bf7d14d24a5efd44bf7160001b600d556207a120600e60006101000a81548163ffffffff021916908363ffffffff1602179055506003600e60046101000a81548161ffff021916908361ffff1602179055506001600e60066101000a81548163ffffffff021916908363ffffffff1602179055503480156100f057600080fd5b5060405161542e38038061542e83398181016040528101906101129190610578565b6040518060400160405280600d81526020017f5065726b6c79566f7563686572000000000000000000000000000000000000008152506040518060400160405280600481526020017f5056434800000000000000000000000000000000000000000000000000000000815250600c60009054906101000a900473ffffffffffffffffffffffffffffffffffffffff16338060008073ffffffffffffffffffffffffffffffffffffffff168273ffffffffffffffffffffffffffffffffffffffff1603610213576040517f08c379a000000000000000000000000000000000000000000000000000000000815260040161020a90610615565b60405180910390fd5b816000806101000a81548173ffffffffffffffffffffffffffffffffffffffff021916908373ffffffffffffffffffffffffffffffffffffffff160217905550600073ffffffffffffffffffffffffffffffffffffffff168173ffffffffffffffffffffffffffffffffffffffff161461029757610296816103b360201b60201c565b5b505050600073ffffffffffffffffffffffffffffffffffffffff168173ffffffffffffffffffffffffffffffffffffffff1603610300576040517fd92e233d00000000000000000000000000000000000000000000000000000000815260040160405180910390fd5b80600260006101000a81548173ffffffffffffffffffffffffffffffffffffffff021916908373ffffffffffffffffffffffffffffffffffffffff160217905550508160039081610351919061087b565b508060049081610361919061087b565b50505081600b8190555080600e600a6101000a81548173ffffffffffffffffffffffffffffffffffffffff021916908373ffffffffffffffffffffffffffffffffffffffff16021790555050506109b9565b3373ffffffffffffffffffffffffffffffffffffffff168173ffffffffffffffffffffffffffffffffffffffff1603610421576040517f08c379a000000000000000000000000000000000000000000000000000000000815260040161041890610999565b60405180910390fd5b80600160006101000a81548173ffffffffffffffffffffffffffffffffffffffff021916908373ffffffffffffffffffffffffffffffffffffffff1602179055508073ffffffffffffffffffffffffffffffffffffffff1660008054906101000a900473ffffffffffffffffffffffffffffffffffffffff1673ffffffffffffffffffffffffffffffffffffffff167fed8889f560326eb138920d842192f0eb3dd22b4f139c87a2c57538e05bae127860405160405180910390a350565b600080fd5b6000819050919050565b6104f7816104e4565b811461050257600080fd5b50565b600081519050610514816104ee565b92915050565b600073ffffffffffffffffffffffffffffffffffffffff82169050919050565b60006105458261051a565b9050919050565b6105558161053a565b811461056057600080fd5b50565b6000815190506105728161054c565b92915050565b6000806040838503121561058f5761058e6104df565b5b600061059d85828601610505565b92505060206105ae85828601610563565b9150509250929050565b600082825260208201905092915050565b7f43616e6e6f7420736574206f776e657220746f207a65726f0000000000000000600082015250565b60006105ff6018836105b8565b915061060a826105c9565b602082019050919050565b6000602082019050818103600083015261062e816105f2565b9050919050565b600081519050919050565b7f4e487b7100000000000000000000000000000000000000000000000000000000600052604160045260246000fd5b7f4e487b7100000000000000000000000000000000000000000000000000000000600052602260045260246000fd5b600060028204905060018216806106b657607f821691505b6020821081036106c9576106c861066f565b5b50919050565b60008190508160005260206000209050919050565b60006020601f8301049050919050565b600082821b905092915050565b6000600883026107317fffffffffffffffffffffffffffffffffffffffffffffffffffffffffffffffff826106f4565b61073b86836106f4565b95508019841693508086168417925050509392505050565b6000819050919050565b600061077861077361076e846104e4565b610753565b6104e4565b9050919050565b6000819050919050565b6107928361075d565b6107a661079e8261077f565b848454610701565b825550505050565b600090565b6107bb6107ae565b6107c6818484610789565b505050565b5b818110156107ea576107df6000826107b3565b6001810190506107cc565b5050565b601f82111561082f57610800816106cf565b610809846106e4565b81016020851015610818578190505b61082c610824856106e4565b8301826107cb565b50505b505050565b600082821c905092915050565b600061085260001984600802610834565b1980831691505092915050565b600061086b8383610841565b9150826002028217905092915050565b61088482610635565b67ffffffffffffffff81111561089d5761089c610640565b5b6108a7825461069e565b6108b28282856107ee565b600060209050601f8311600181146108e557600084156108d3578287015190505b6108dd858261085f565b865550610945565b601f1984166108f3866106cf565b60005b8281101561091b578489015182556001820191506020850194506020810190506108f6565b868310156109385784890151610934601f891682610841565b8355505b6001600288020188555050505b505050505050565b7f43616e6e6f74207472616e7366657220746f2073656c66000000000000000000600082015250565b60006109836017836105b8565b915061098e8261094d565b602082019050919050565b600060208201905081810360008301526109b281610976565b9050919050565b614a66806109c86000396000f3fe608060405234801561001057600080fd5b506004361061014d5760003560e01c806370a08231116100c3578063a22cb4651161007c578063a22cb4651461039c578063b88d4fde146103b8578063c87b56dd146103d4578063e985e9c514610404578063f2fde38b14610434578063f87da8f4146104505761014d565b806370a08231146102ec57806379ba50971461031c5780638da5cb5b146103265780638ea981171461034457806395d89b41146103605780639eccacf61461037e5761014d565b806323b872dd1161011557806323b872dd1461020857806342842e0e1461022457806342966c68146102405780636352211e1461025c57806369630de21461028c5780636e8f8dc7146102bc5761014d565b806301ffc9a71461015257806306fdde0314610182578063081812fc146101a0578063095ea7b3146101d05780631fe543e3146101ec575b600080fd5b61016c60048036038101906101679190612db5565b61046e565b6040516101799190612dfd565b60405180910390f35b61018a6104cf565b6040516101979190612ea8565b60405180910390f35b6101ba60048036038101906101b59190612f00565b610561565b6040516101c79190612f6e565b60405180910390f35b6101ea60048036038101906101e59190612fb5565b6105a7565b005b6102066004803603810190610201919061305a565b6106be565b005b610222600480360381019061021d91906130ba565b610784565b005b61023e600480360381019061023991906130ba565b6107e4565b005b61025a60048036038101906102559190612f00565b610804565b005b61027660048036038101906102719190612f00565b6108fa565b6040516102839190612f6e565b60405180910390f35b6102a660048036038101906102a19190613300565b610980565b6040516102b3919061339a565b60405180910390f35b6102d660048036038101906102d19190612fb5565b610bfc565b6040516102e391906133d1565b60405180910390f35b610306600480360381019061030191906133ec565b610c3f565b604051610313919061339a565b60405180910390f35b610324610cf6565b005b61032e610e8b565b60405161033b9190612f6e565b60405180910390f35b61035e600480360381019061035991906133ec565b610eb4565b005b610368611095565b6040516103759190612ea8565b60405180910390f35b610386611127565b6040516103939190613478565b60405180910390f35b6103b660048036038101906103b191906134bf565b61114d565b005b6103d260048036038101906103cd91906135a0565b611163565b005b6103ee60048036038101906103e99190612f00565b6111c5565b6040516103fb9190612ea8565b60405180910390f35b61041e60048036038101906104199190613623565b6112d7565b60405161042b9190612dfd565b60405180910390f35b61044e600480360381019061044991906133ec565b61136b565b005b61045861137f565b6040516104659190613684565b60405180910390f35b6000634906490660e01b7bffffffffffffffffffffffffffffffffffffffffffffffffffffffff1916827bffffffffffffffffffffffffffffffffffffffffffffffffffffffff191614806104c857506104c7826113a5565b5b9050919050565b6060600380546104de906136ce565b80601f016020809104026020016040519081016040528092919081815260200182805461050a906136ce565b80156105575780601f1061052c57610100808354040283529160200191610557565b820191906000526020600020905b81548152906001019060200180831161053a57829003601f168201915b5050505050905090565b600061056c82611487565b6007600083815260200190815260200160002060009054906101000a900473ffffffffffffffffffffffffffffffffffffffff169050919050565b60006105b2826108fa565b90508073ffffffffffffffffffffffffffffffffffffffff168373ffffffffffffffffffffffffffffffffffffffff1603610622576040517f08c379a000000000000000000000000000000000000000000000000000000000815260040161061990613771565b60405180910390fd5b8073ffffffffffffffffffffffffffffffffffffffff166106416114d2565b73ffffffffffffffffffffffffffffffffffffffff161480610670575061066f8161066a6114d2565b6112d7565b5b6106af576040517f08c379a00000000000000000000000000000000000000000000000000000000081526004016106a690613803565b60405180910390fd5b6106b983836114da565b505050565b600260009054906101000a900473ffffffffffffffffffffffffffffffffffffffff1673ffffffffffffffffffffffffffffffffffffffff163373ffffffffffffffffffffffffffffffffffffffff16146107745733600260009054906101000a900473ffffffffffffffffffffffffffffffffffffffff166040517f1cf993f400000000000000000000000000000000000000000000000000000000815260040161076b929190613823565b60405180910390fd5b61077f838383611593565b505050565b61079561078f6114d2565b82611ad3565b6107d4576040517f08c379a00000000000000000000000000000000000000000000000000000000081526004016107cb906138be565b60405180910390fd5b6107df838383611b68565b505050565b6107ff83838360405180602001604052806000815250611163565b505050565b61080c610e8b565b73ffffffffffffffffffffffffffffffffffffffff163373ffffffffffffffffffffffffffffffffffffffff1614610879576040517f08c379a000000000000000000000000000000000000000000000000000000000815260040161087090613950565b60405180910390fd5b61088281611e61565b6108c1576040517f08c379a00000000000000000000000000000000000000000000000000000000081526004016108b8906139bc565b60405180910390fd5b6108ca81611ea2565b807ff46d91f49abfdfcdc8a0dd76c1e554863a831836c4439af8ff09c13d34b3086360405160405180910390a250565b60008061090683611ef5565b9050600073ffffffffffffffffffffffffffffffffffffffff168173ffffffffffffffffffffffffffffffffffffffff1603610977576040517f08c379a000000000000000000000000000000000000000000000000000000000815260040161096e90613a28565b60405180910390fd5b80915050919050565b6000600260009054906101000a900473ffffffffffffffffffffffffffffffffffffffff1673ffffffffffffffffffffffffffffffffffffffff16639b1c385e6040518060c00160405280600d548152602001600b548152602001600e60049054906101000a900461ffff1661ffff168152602001600e60009054906101000a900463ffffffff1663ffffffff168152602001600e60069054906101000a900463ffffffff1663ffffffff168152602001610a4b604051806020016040528060001515815250611f32565b8152506040518263ffffffff1660e01b8152600401610a6a9190613b8a565b6020604051808303816000875af1158015610a89573d6000803e3d6000fd5b505050506040513d601f19601f82011682018060405250810190610aad9190613bc1565b905060405180606001604052808573ffffffffffffffffffffffffffffffffffffffff16815260200183604051602001610ae79190613c76565b6040516020818303038152906040528152602001848152506010600083815260200190815260200160002060008201518160000160006101000a81548173ffffffffffffffffffffffffffffffffffffffff021916908373ffffffffffffffffffffffffffffffffffffffff1602179055506020820151816001019081610b6e9190613e3a565b506040820151816002019080519060200190610b8b929190612c41565b50905050807f538214190b7ecf6ff6cb0c7c32e56b1f2fc891bb8c93dbb9e78c43471ab16c7a856010600085815260200190815260200160002060010160106000868152602001908152602001600020600201604051610bed939291906140b4565b60405180910390a29392505050565b600f6020528160005260406000208181548110610c1857600080fd5b9060005260206000209060209182820401919006915091509054906101000a900460ff1681565b60008073ffffffffffffffffffffffffffffffffffffffff168273ffffffffffffffffffffffffffffffffffffffff1603610caf576040517f08c379a0000000000000000000000000000000000000000000000000000000008152600401610ca69061416b565b60405180910390fd5b600660008373ffffffffffffffffffffffffffffffffffffffff1673ffffffffffffffffffffffffffffffffffffffff168152602001908152602001600020549050919050565b600160009054906101000a900473ffffffffffffffffffffffffffffffffffffffff1673ffffffffffffffffffffffffffffffffffffffff163373ffffffffffffffffffffffffffffffffffffffff1614610d86576040517f08c379a0000000000000000000000000000000000000000000000000000000008152600401610d7d906141d7565b60405180910390fd5b60008060009054906101000a900473ffffffffffffffffffffffffffffffffffffffff169050336000806101000a81548173ffffffffffffffffffffffffffffffffffffffff021916908373ffffffffffffffffffffffffffffffffffffffff1602179055506000600160006101000a81548173ffffffffffffffffffffffffffffffffffffffff021916908373ffffffffffffffffffffffffffffffffffffffff1602179055503373ffffffffffffffffffffffffffffffffffffffff168173ffffffffffffffffffffffffffffffffffffffff167f8be0079c531659141344cd1fd0a4f28419497f9722a3daafe3b4186f6b6457e060405160405180910390a350565b60008060009054906101000a900473ffffffffffffffffffffffffffffffffffffffff16905090565b610ebc610e8b565b73ffffffffffffffffffffffffffffffffffffffff163373ffffffffffffffffffffffffffffffffffffffff1614158015610f455750600260009054906101000a900473ffffffffffffffffffffffffffffffffffffffff1673ffffffffffffffffffffffffffffffffffffffff163373ffffffffffffffffffffffffffffffffffffffff1614155b15610fb45733610f53610e8b565b600260009054906101000a900473ffffffffffffffffffffffffffffffffffffffff166040517f061db9c1000000000000000000000000000000000000000000000000000000008152600401610fab939291906141f7565b60405180910390fd5b600073ffffffffffffffffffffffffffffffffffffffff168173ffffffffffffffffffffffffffffffffffffffff160361101a576040517fd92e233d00000000000000000000000000000000000000000000000000000000815260040160405180910390fd5b80600260006101000a81548173ffffffffffffffffffffffffffffffffffffffff021916908373ffffffffffffffffffffffffffffffffffffffff1602179055507fd1a6a14209a385a964d036e404cb5cfb71f4000cdb03c9366292430787261be68160405161108a9190612f6e565b60405180910390a150565b6060600480546110a4906136ce565b80601f01602080910402602001604051908101604052809291908181526020018280546110d0906136ce565b801561111d5780601f106110f25761010080835404028352916020019161111d565b820191906000526020600020905b81548152906001019060200180831161110057829003601f168201915b5050505050905090565b600260009054906101000a900473ffffffffffffffffffffffffffffffffffffffff1681565b61115f6111586114d2565b8383611fca565b5050565b61117461116e6114d2565b83611ad3565b6111b3576040517f08c379a00000000000000000000000000000000000000000000000000000000081526004016111aa906138be565b60405180910390fd5b6111bf84848484612136565b50505050565b60606111d082611487565b60006009600084815260200190815260200160002080546111f0906136ce565b80601f016020809104026020016040519081016040528092919081815260200182805461121c906136ce565b80156112695780601f1061123e57610100808354040283529160200191611269565b820191906000526020600020905b81548152906001019060200180831161124c57829003601f168201915b50505050509050600061127a612192565b9050600081510361128f5781925050506112d2565b6000825111156112c45780826040516020016112ac92919061422e565b604051602081830303815290604052925050506112d2565b6112cd846121a9565b925050505b919050565b6000600860008473ffffffffffffffffffffffffffffffffffffffff1673ffffffffffffffffffffffffffffffffffffffff16815260200190815260200160002060008373ffffffffffffffffffffffffffffffffffffffff1673ffffffffffffffffffffffffffffffffffffffff16815260200190815260200160002060009054906101000a900460ff16905092915050565b611373612211565b61137c816122a1565b50565b600e600a9054906101000a900473ffffffffffffffffffffffffffffffffffffffff1681565b60007f80ac58cd000000000000000000000000000000000000000000000000000000007bffffffffffffffffffffffffffffffffffffffffffffffffffffffff1916827bffffffffffffffffffffffffffffffffffffffffffffffffffffffff1916148061147057507f5b5e139f000000000000000000000000000000000000000000000000000000007bffffffffffffffffffffffffffffffffffffffffffffffffffffffff1916827bffffffffffffffffffffffffffffffffffffffffffffffffffffffff1916145b80611480575061147f826123cd565b5b9050919050565b61149081611e61565b6114cf576040517f08c379a00000000000000000000000000000000000000000000000000000000081526004016114c690613a28565b60405180910390fd5b50565b600033905090565b816007600083815260200190815260200160002060006101000a81548173ffffffffffffffffffffffffffffffffffffffff021916908373ffffffffffffffffffffffffffffffffffffffff160217905550808273ffffffffffffffffffffffffffffffffffffffff1661154d836108fa565b73ffffffffffffffffffffffffffffffffffffffff167f8c5be1e5ebec7d5bd14f71427d1e84f3dd0314c0f7b2291e5b200ac8c7c3b92560405160405180910390a45050565b600060106000858152602001908152602001600020905060008160020180548060200260200160405190810160405280929190818152602001828054801561163057602002820191906000526020600020905b8160009054906101000a900473ffffffffffffffffffffffffffffffffffffffff1673ffffffffffffffffffffffffffffffffffffffff16815260200190600101908083116115e6575b505050505090506000826001018054611648906136ce565b80601f0160208091040260200160405190810160405280929190818152602001828054611674906136ce565b80156116c15780601f10611696576101008083540402835291602001916116c1565b820191906000526020600020905b8154815290600101906020018083116116a457829003601f168201915b5050505050905060008360000160009054906101000a900473ffffffffffffffffffffffffffffffffffffffff1690506000835111611735576040517f08c379a000000000000000000000000000000000000000000000000000000000815260040161172c9061429e565b60405180910390fd5b600080845167ffffffffffffffff8111156117535761175261310d565b5b6040519080825280602002602001820160405280156117815781602001602082028036833780820191505090505b50905060005b8551811015611886576000600e600a9054906101000a900473ffffffffffffffffffffffffffffffffffffffff1673ffffffffffffffffffffffffffffffffffffffff166370a082318884815181106117e3576117e26142be565b5b60200260200101516040518263ffffffff1660e01b81526004016118079190612f6e565b602060405180830381865afa158015611824573d6000803e3d6000fd5b505050506040513d601f19601f820116820180604052508101906118489190613bc1565b90508083838151811061185e5761185d6142be565b5b6020026020010181815250508084611876919061431c565b9350508080600101915050611787565b50600082116118ca576040517f08c379a00000000000000000000000000000000000000000000000000000000081526004016118c1906143c2565b60405180910390fd5b600082898960008181106118e1576118e06142be565b5b905060200201356118f29190614411565b905060008080600090505b885181101561196557848181518110611919576119186142be565b5b60200260200101518361192c919061431c565b92508284101561195857888181518110611949576119486142be565b5b60200260200101519150611965565b80806001019150506118fd565b50600073ffffffffffffffffffffffffffffffffffffffff168173ffffffffffffffffffffffffffffffffffffffff16036119d5576040517f08c379a00000000000000000000000000000000000000000000000000000000081526004016119cc9061448e565b60405180910390fd5b6119df600a612437565b60006119eb600a61244d565b90506119f7828261245b565b611a018189612678565b8673ffffffffffffffffffffffffffffffffffffffff168273ffffffffffffffffffffffffffffffffffffffff168e7fc5017b8225a47d53c09f49b6fef0d1786be89c43d32f4e342bf559ca3ff5bb4284604051611a5f919061339a565b60405180910390a4601060008e8152602001908152602001600020600080820160006101000a81549073ffffffffffffffffffffffffffffffffffffffff0219169055600182016000611ab29190612ccb565b600282016000611ac29190612d0b565b505050505050505050505050505050565b600080611adf836108fa565b90508073ffffffffffffffffffffffffffffffffffffffff168473ffffffffffffffffffffffffffffffffffffffff161480611b215750611b2081856112d7565b5b80611b5f57508373ffffffffffffffffffffffffffffffffffffffff16611b4784610561565b73ffffffffffffffffffffffffffffffffffffffff16145b91505092915050565b8273ffffffffffffffffffffffffffffffffffffffff16611b88826108fa565b73ffffffffffffffffffffffffffffffffffffffff1614611bde576040517f08c379a0000000000000000000000000000000000000000000000000000000008152600401611bd590614520565b60405180910390fd5b600073ffffffffffffffffffffffffffffffffffffffff168273ffffffffffffffffffffffffffffffffffffffff1603611c4d576040517f08c379a0000000000000000000000000000000000000000000000000000000008152600401611c44906145b2565b60405180910390fd5b611c5a838383600161271c565b8273ffffffffffffffffffffffffffffffffffffffff16611c7a826108fa565b73ffffffffffffffffffffffffffffffffffffffff1614611cd0576040517f08c379a0000000000000000000000000000000000000000000000000000000008152600401611cc790614520565b60405180910390fd5b6007600082815260200190815260200160002060006101000a81549073ffffffffffffffffffffffffffffffffffffffff02191690556001600660008573ffffffffffffffffffffffffffffffffffffffff1673ffffffffffffffffffffffffffffffffffffffff168152602001908152602001600020600082825403925050819055506001600660008473ffffffffffffffffffffffffffffffffffffffff1673ffffffffffffffffffffffffffffffffffffffff16815260200190815260200160002060008282540192505081905550816005600083815260200190815260200160002060006101000a81548173ffffffffffffffffffffffffffffffffffffffff021916908373ffffffffffffffffffffffffffffffffffffffff160217905550808273ffffffffffffffffffffffffffffffffffffffff168473ffffffffffffffffffffffffffffffffffffffff167fddf252ad1be2c89b69c2b068fc378daa952ba7f163c4a11628f55a4df523b3ef60405160405180910390a4611e5c8383836001612722565b505050565b60008073ffffffffffffffffffffffffffffffffffffffff16611e8383611ef5565b73ffffffffffffffffffffffffffffffffffffffff1614159050919050565b611eab81612728565b6000600960008381526020019081526020016000208054611ecb906136ce565b905014611ef257600960008281526020019081526020016000206000611ef19190612ccb565b5b50565b60006005600083815260200190815260200160002060009054906101000a900473ffffffffffffffffffffffffffffffffffffffff169050919050565b60607f92fd13387c7fe7befbc38d303d6468778fb9731bc4583f17d92989c6fcfdeaaa82604051602401611f6691906145fd565b604051602081830303815290604052907bffffffffffffffffffffffffffffffffffffffffffffffffffffffff19166020820180517bffffffffffffffffffffffffffffffffffffffffffffffffffffffff83818316178352505050509050919050565b8173ffffffffffffffffffffffffffffffffffffffff168373ffffffffffffffffffffffffffffffffffffffff1603612038576040517f08c379a000000000000000000000000000000000000000000000000000000000815260040161202f90614664565b60405180910390fd5b80600860008573ffffffffffffffffffffffffffffffffffffffff1673ffffffffffffffffffffffffffffffffffffffff16815260200190815260200160002060008473ffffffffffffffffffffffffffffffffffffffff1673ffffffffffffffffffffffffffffffffffffffff16815260200190815260200160002060006101000a81548160ff0219169083151502179055508173ffffffffffffffffffffffffffffffffffffffff168373ffffffffffffffffffffffffffffffffffffffff167f17307eab39ab6107e8899845ad3d59bd9653f200f220920489ca2b5937696c31836040516121299190612dfd565b60405180910390a3505050565b612141848484611b68565b61214d84848484612876565b61218c576040517f08c379a0000000000000000000000000000000000000000000000000000000008152600401612183906146f6565b60405180910390fd5b50505050565b606060405180602001604052806000815250905090565b60606121b482611487565b60006121be612192565b905060008151116121de5760405180602001604052806000815250612209565b806121e8846129fd565b6040516020016121f992919061422e565b6040516020818303038152906040525b915050919050565b60008054906101000a900473ffffffffffffffffffffffffffffffffffffffff1673ffffffffffffffffffffffffffffffffffffffff163373ffffffffffffffffffffffffffffffffffffffff161461229f576040517f08c379a000000000000000000000000000000000000000000000000000000000815260040161229690614762565b60405180910390fd5b565b3373ffffffffffffffffffffffffffffffffffffffff168173ffffffffffffffffffffffffffffffffffffffff160361230f576040517f08c379a0000000000000000000000000000000000000000000000000000000008152600401612306906147ce565b60405180910390fd5b80600160006101000a81548173ffffffffffffffffffffffffffffffffffffffff021916908373ffffffffffffffffffffffffffffffffffffffff1602179055508073ffffffffffffffffffffffffffffffffffffffff1660008054906101000a900473ffffffffffffffffffffffffffffffffffffffff1673ffffffffffffffffffffffffffffffffffffffff167fed8889f560326eb138920d842192f0eb3dd22b4f139c87a2c57538e05bae127860405160405180910390a350565b60007f01ffc9a7000000000000000000000000000000000000000000000000000000007bffffffffffffffffffffffffffffffffffffffffffffffffffffffff1916827bffffffffffffffffffffffffffffffffffffffffffffffffffffffff1916149050919050565b6001816000016000828254019250508190555050565b600081600001549050919050565b600073ffffffffffffffffffffffffffffffffffffffff168273ffffffffffffffffffffffffffffffffffffffff16036124ca576040517f08c379a00000000000000000000000000000000000000000000000000000000081526004016124c19061483a565b60405180910390fd5b6124d381611e61565b15612513576040517f08c379a000000000000000000000000000000000000000000000000000000000815260040161250a906148a6565b60405180910390fd5b61252160008383600161271c565b61252a81611e61565b1561256a576040517f08c379a0000000000000000000000000000000000000000000000000000000008152600401612561906148a6565b60405180910390fd5b6001600660008473ffffffffffffffffffffffffffffffffffffffff1673ffffffffffffffffffffffffffffffffffffffff16815260200190815260200160002060008282540192505081905550816005600083815260200190815260200160002060006101000a81548173ffffffffffffffffffffffffffffffffffffffff021916908373ffffffffffffffffffffffffffffffffffffffff160217905550808273ffffffffffffffffffffffffffffffffffffffff16600073ffffffffffffffffffffffffffffffffffffffff167fddf252ad1be2c89b69c2b068fc378daa952ba7f163c4a11628f55a4df523b3ef60405160405180910390a4612674600083836001612722565b5050565b61268182611e61565b6126c0576040517f08c379a00000000000000000000000000000000000000000000000000000000081526004016126b790614938565b60405180910390fd5b806009600084815260200190815260200160002090816126e09190613e3a565b507ff8e1a15aba9398e019f0b49df1a4fde98ee17ae345cb5f6b5e2c27f5033e8ce782604051612710919061339a565b60405180910390a15050565b50505050565b50505050565b6000612733826108fa565b905061274381600084600161271c565b61274c826108fa565b90506007600083815260200190815260200160002060006101000a81549073ffffffffffffffffffffffffffffffffffffffff02191690556001600660008373ffffffffffffffffffffffffffffffffffffffff1673ffffffffffffffffffffffffffffffffffffffff168152602001908152602001600020600082825403925050819055506005600083815260200190815260200160002060006101000a81549073ffffffffffffffffffffffffffffffffffffffff021916905581600073ffffffffffffffffffffffffffffffffffffffff168273ffffffffffffffffffffffffffffffffffffffff167fddf252ad1be2c89b69c2b068fc378daa952ba7f163c4a11628f55a4df523b3ef60405160405180910390a4612872816000846001612722565b5050565b60006128978473ffffffffffffffffffffffffffffffffffffffff16612acb565b156129f0578373ffffffffffffffffffffffffffffffffffffffff1663150b7a026128c06114d2565b8786866040518563ffffffff1660e01b81526004016128e294939291906149a2565b6020604051808303816000875af192505050801561291e57506040513d601f19601f8201168201806040525081019061291b9190614a03565b60015b6129a0573d806000811461294e576040519150601f19603f3d011682016040523d82523d6000602084013e612953565b606091505b506000815103612998576040517f08c379a000000000000000000000000000000000000000000000000000000000815260040161298f906146f6565b60405180910390fd5b805181602001fd5b63150b7a0260e01b7bffffffffffffffffffffffffffffffffffffffffffffffffffffffff1916817bffffffffffffffffffffffffffffffffffffffffffffffffffffffff1916149150506129f5565b600190505b949350505050565b606060006001612a0c84612aee565b01905060008167ffffffffffffffff811115612a2b57612a2a61310d565b5b6040519080825280601f01601f191660200182016040528015612a5d5781602001600182028036833780820191505090505b509050600082602001820190505b600115612ac0578080600190039150507f3031323334353637383961626364656600000000000000000000000000000000600a86061a8153600a8581612ab457612ab36143e2565b5b04945060008503612a6b575b819350505050919050565b6000808273ffffffffffffffffffffffffffffffffffffffff163b119050919050565b600080600090507a184f03e93ff9f4daa797ed6e38ed64bf6a1f0100000000000000008310612b4c577a184f03e93ff9f4daa797ed6e38ed64bf6a1f0100000000000000008381612b4257612b416143e2565b5b0492506040810190505b6d04ee2d6d415b85acef81000000008310612b89576d04ee2d6d415b85acef81000000008381612b7f57612b7e6143e2565b5b0492506020810190505b662386f26fc100008310612bb857662386f26fc100008381612bae57612bad6143e2565b5b0492506010810190505b6305f5e1008310612be1576305f5e1008381612bd757612bd66143e2565b5b0492506008810190505b6127108310612c06576127108381612bfc57612bfb6143e2565b5b0492506004810190505b60648310612c295760648381612c1f57612c1e6143e2565b5b0492506002810190505b600a8310612c38576001810190505b80915050919050565b828054828255906000526020600020908101928215612cba579160200282015b82811115612cb95782518260006101000a81548173ffffffffffffffffffffffffffffffffffffffff021916908373ffffffffffffffffffffffffffffffffffffffff16021790555091602001919060010190612c61565b5b509050612cc79190612d2c565b5090565b508054612cd7906136ce565b6000825580601f10612ce95750612d08565b601f016020900490600052602060002090810190612d079190612d2c565b5b50565b5080546000825590600052602060002090810190612d299190612d2c565b50565b5b80821115612d45576000816000905550600101612d2d565b5090565b6000604051905090565b600080fd5b600080fd5b60007fffffffff0000000000000000000000000000000000000000000000000000000082169050919050565b612d9281612d5d565b8114612d9d57600080fd5b50565b600081359050612daf81612d89565b92915050565b600060208284031215612dcb57612dca612d53565b5b6000612dd984828501612da0565b91505092915050565b60008115159050919050565b612df781612de2565b82525050565b6000602082019050612e126000830184612dee565b92915050565b600081519050919050565b600082825260208201905092915050565b60005b83811015612e52578082015181840152602081019050612e37565b60008484015250505050565b6000601f19601f8301169050919050565b6000612e7a82612e18565b612e848185612e23565b9350612e94818560208601612e34565b612e9d81612e5e565b840191505092915050565b60006020820190508181036000830152612ec28184612e6f565b905092915050565b6000819050919050565b612edd81612eca565b8114612ee857600080fd5b50565b600081359050612efa81612ed4565b92915050565b600060208284031215612f1657612f15612d53565b5b6000612f2484828501612eeb565b91505092915050565b600073ffffffffffffffffffffffffffffffffffffffff82169050919050565b6000612f5882612f2d565b9050919050565b612f6881612f4d565b82525050565b6000602082019050612f836000830184612f5f565b92915050565b612f9281612f4d565b8114612f9d57600080fd5b50565b600081359050612faf81612f89565b92915050565b60008060408385031215612fcc57612fcb612d53565b5b6000612fda85828601612fa0565b9250506020612feb85828601612eeb565b9150509250929050565b600080fd5b600080fd5b600080fd5b60008083601f84011261301a57613019612ff5565b5b8235905067ffffffffffffffff81111561303757613036612ffa565b5b60208301915083602082028301111561305357613052612fff565b5b9250929050565b60008060006040848603121561307357613072612d53565b5b600061308186828701612eeb565b935050602084013567ffffffffffffffff8111156130a2576130a1612d58565b5b6130ae86828701613004565b92509250509250925092565b6000806000606084860312156130d3576130d2612d53565b5b60006130e186828701612fa0565b93505060206130f286828701612fa0565b925050604061310386828701612eeb565b9150509250925092565b7f4e487b7100000000000000000000000000000000000000000000000000000000600052604160045260246000fd5b61314582612e5e565b810181811067ffffffffffffffff821117156131645761316361310d565b5b80604052505050565b6000613177612d49565b9050613183828261313c565b919050565b600067ffffffffffffffff8211156131a3576131a261310d565b5b602082029050602081019050919050565b60006131c76131c284613188565b61316d565b905080838252602082019050602084028301858111156131ea576131e9612fff565b5b835b8181101561321357806131ff8882612fa0565b8452602084019350506020810190506131ec565b5050509392505050565b600082601f83011261323257613231612ff5565b5b81356132428482602086016131b4565b91505092915050565b600080fd5b600067ffffffffffffffff82111561326b5761326a61310d565b5b61327482612e5e565b9050602081019050919050565b82818337600083830152505050565b60006132a361329e84613250565b61316d565b9050828152602081018484840111156132bf576132be61324b565b5b6132ca848285613281565b509392505050565b600082601f8301126132e7576132e6612ff5565b5b81356132f7848260208601613290565b91505092915050565b60008060006060848603121561331957613318612d53565b5b600061332786828701612fa0565b935050602084013567ffffffffffffffff81111561334857613347612d58565b5b6133548682870161321d565b925050604084013567ffffffffffffffff81111561337557613374612d58565b5b613381868287016132d2565b9150509250925092565b61339481612eca565b82525050565b60006020820190506133af600083018461338b565b92915050565b600060ff82169050919050565b6133cb816133b5565b82525050565b60006020820190506133e660008301846133c2565b92915050565b60006020828403121561340257613401612d53565b5b600061341084828501612fa0565b91505092915050565b6000819050919050565b600061343e61343961343484612f2d565b613419565b612f2d565b9050919050565b600061345082613423565b9050919050565b600061346282613445565b9050919050565b61347281613457565b82525050565b600060208201905061348d6000830184613469565b92915050565b61349c81612de2565b81146134a757600080fd5b50565b6000813590506134b981613493565b92915050565b600080604083850312156134d6576134d5612d53565b5b60006134e485828601612fa0565b92505060206134f5858286016134aa565b9150509250929050565b600067ffffffffffffffff82111561351a5761351961310d565b5b61352382612e5e565b9050602081019050919050565b600061354361353e846134ff565b61316d565b90508281526020810184848401111561355f5761355e61324b565b5b61356a848285613281565b509392505050565b600082601f83011261358757613586612ff5565b5b8135613597848260208601613530565b91505092915050565b600080600080608085870312156135ba576135b9612d53565b5b60006135c887828801612fa0565b94505060206135d987828801612fa0565b93505060406135ea87828801612eeb565b925050606085013567ffffffffffffffff81111561360b5761360a612d58565b5b61361787828801613572565b91505092959194509250565b6000806040838503121561363a57613639612d53565b5b600061364885828601612fa0565b925050602061365985828601612fa0565b9150509250929050565b600061366e82613445565b9050919050565b61367e81613663565b82525050565b60006020820190506136996000830184613675565b92915050565b7f4e487b7100000000000000000000000000000000000000000000000000000000600052602260045260246000fd5b600060028204905060018216806136e657607f821691505b6020821081036136f9576136f861369f565b5b50919050565b7f4552433732313a20617070726f76616c20746f2063757272656e74206f776e6560008201527f7200000000000000000000000000000000000000000000000000000000000000602082015250565b600061375b602183612e23565b9150613766826136ff565b604082019050919050565b6000602082019050818103600083015261378a8161374e565b9050919050565b7f4552433732313a20617070726f76652063616c6c6572206973206e6f7420746f60008201527f6b656e206f776e6572206f7220617070726f76656420666f7220616c6c000000602082015250565b60006137ed603d83612e23565b91506137f882613791565b604082019050919050565b6000602082019050818103600083015261381c816137e0565b9050919050565b60006040820190506138386000830185612f5f565b6138456020830184612f5f565b9392505050565b7f4552433732313a2063616c6c6572206973206e6f7420746f6b656e206f776e6560008201527f72206f7220617070726f76656400000000000000000000000000000000000000602082015250565b60006138a8602d83612e23565b91506138b38261384c565b604082019050919050565b600060208201905081810360008301526138d78161389b565b9050919050565b7f4f6e6c792074686520636f6e7472616374206f776e65722063616e206275726e60008201527f204e465473000000000000000000000000000000000000000000000000000000602082015250565b600061393a602583612e23565b9150613945826138de565b604082019050919050565b600060208201905081810360008301526139698161392d565b9050919050565b7f4e465420646f6573206e6f742065786973740000000000000000000000000000600082015250565b60006139a6601283612e23565b91506139b182613970565b602082019050919050565b600060208201905081810360008301526139d581613999565b9050919050565b7f4552433732313a20696e76616c696420746f6b656e2049440000000000000000600082015250565b6000613a12601883612e23565b9150613a1d826139dc565b602082019050919050565b60006020820190508181036000830152613a4181613a05565b9050919050565b6000819050919050565b613a5b81613a48565b82525050565b613a6a81612eca565b82525050565b600061ffff82169050919050565b613a8781613a70565b82525050565b600063ffffffff82169050919050565b613aa681613a8d565b82525050565b600081519050919050565b600082825260208201905092915050565b6000613ad382613aac565b613add8185613ab7565b9350613aed818560208601612e34565b613af681612e5e565b840191505092915050565b600060c083016000830151613b196000860182613a52565b506020830151613b2c6020860182613a61565b506040830151613b3f6040860182613a7e565b506060830151613b526060860182613a9d565b506080830151613b656080860182613a9d565b5060a083015184820360a0860152613b7d8282613ac8565b9150508091505092915050565b60006020820190508181036000830152613ba48184613b01565b905092915050565b600081519050613bbb81612ed4565b92915050565b600060208284031215613bd757613bd6612d53565b5b6000613be584828501613bac565b91505092915050565b600081905092915050565b7f697066733a2f2f00000000000000000000000000000000000000000000000000600082015250565b6000613c2f600783613bee565b9150613c3a82613bf9565b600782019050919050565b6000613c5082612e18565b613c5a8185613bee565b9350613c6a818560208601612e34565b80840191505092915050565b6000613c8182613c22565b9150613c8d8284613c45565b915081905092915050565b60008190508160005260206000209050919050565b60006020601f8301049050919050565b600082821b905092915050565b600060088302613cfa7fffffffffffffffffffffffffffffffffffffffffffffffffffffffffffffffff82613cbd565b613d048683613cbd565b95508019841693508086168417925050509392505050565b6000613d37613d32613d2d84612eca565b613419565b612eca565b9050919050565b6000819050919050565b613d5183613d1c565b613d65613d5d82613d3e565b848454613cca565b825550505050565b600090565b613d7a613d6d565b613d85818484613d48565b505050565b5b81811015613da957613d9e600082613d72565b600181019050613d8b565b5050565b601f821115613dee57613dbf81613c98565b613dc884613cad565b81016020851015613dd7578190505b613deb613de385613cad565b830182613d8a565b50505b505050565b600082821c905092915050565b6000613e1160001984600802613df3565b1980831691505092915050565b6000613e2a8383613e00565b9150826002028217905092915050565b613e4382612e18565b67ffffffffffffffff811115613e5c57613e5b61310d565b5b613e6682546136ce565b613e71828285613dad565b600060209050601f831160018114613ea45760008415613e92578287015190505b613e9c8582613e1e565b865550613f04565b601f198416613eb286613c98565b60005b82811015613eda57848901518255600182019150602085019450602081019050613eb5565b86831015613ef75784890151613ef3601f891682613e00565b8355505b6001600288020188555050505b505050505050565b60008154613f19816136ce565b613f238186612e23565b94506001821660008114613f3e5760018114613f5457613f87565b60ff198316865281151560200286019350613f87565b613f5d85613c98565b60005b83811015613f7f57815481890152600182019150602081019050613f60565b808801955050505b50505092915050565b600081549050919050565b600082825260208201905092915050565b60008190508160005260206000209050919050565b613fca81612f4d565b82525050565b6000613fdc8383613fc1565b60208301905092915050565b60008160001c9050919050565b600073ffffffffffffffffffffffffffffffffffffffff82169050919050565b600061402861402383613fe8565b613ff5565b9050919050565b600061403b8254614015565b9050919050565b6000600182019050919050565b600061405a82613f90565b6140648185613f9b565b935061406f83613fac565b8060005b838110156140a7576140848261402f565b61408e8882613fd0565b975061409983614042565b925050600181019050614073565b5085935050505092915050565b60006060820190506140c96000830186612f5f565b81810360208301526140db8185613f0c565b905081810360408301526140ef818461404f565b9050949350505050565b7f4552433732313a2061646472657373207a65726f206973206e6f74206120766160008201527f6c6964206f776e65720000000000000000000000000000000000000000000000602082015250565b6000614155602983612e23565b9150614160826140f9565b604082019050919050565b6000602082019050818103600083015261418481614148565b9050919050565b7f4d7573742062652070726f706f736564206f776e657200000000000000000000600082015250565b60006141c1601683612e23565b91506141cc8261418b565b602082019050919050565b600060208201905081810360008301526141f0816141b4565b9050919050565b600060608201905061420c6000830186612f5f565b6142196020830185612f5f565b6142266040830184612f5f565b949350505050565b600061423a8285613c45565b91506142468284613c45565b91508190509392505050565b7f4e6f20737562736372696265727320617661696c61626c650000000000000000600082015250565b6000614288601883612e23565b915061429382614252565b602082019050919050565b600060208201905081810360008301526142b78161427b565b9050919050565b7f4e487b7100000000000000000000000000000000000000000000000000000000600052603260045260246000fd5b7f4e487b7100000000000000000000000000000000000000000000000000000000600052601160045260246000fd5b600061432782612eca565b915061433283612eca565b925082820190508082111561434a576143496142ed565b5b92915050565b7f4e6f2073756273637269626572206861732073756666696369656e742062616c60008201527f616e636500000000000000000000000000000000000000000000000000000000602082015250565b60006143ac602483612e23565b91506143b782614350565b604082019050919050565b600060208201905081810360008301526143db8161439f565b9050919050565b7f4e487b7100000000000000000000000000000000000000000000000000000000600052601260045260246000fd5b600061441c82612eca565b915061442783612eca565b925082614437576144366143e2565b5b828206905092915050565b7f526563697069656e742073656c656374696f6e206661696c6564000000000000600082015250565b6000614478601a83612e23565b915061448382614442565b602082019050919050565b600060208201905081810360008301526144a78161446b565b9050919050565b7f4552433732313a207472616e736665722066726f6d20696e636f72726563742060008201527f6f776e6572000000000000000000000000000000000000000000000000000000602082015250565b600061450a602583612e23565b9150614515826144ae565b604082019050919050565b60006020820190508181036000830152614539816144fd565b9050919050565b7f4552433732313a207472616e7366657220746f20746865207a65726f2061646460008201527f7265737300000000000000000000000000000000000000000000000000000000602082015250565b600061459c602483612e23565b91506145a782614540565b604082019050919050565b600060208201905081810360008301526145cb8161458f565b9050919050565b6145db81612de2565b82525050565b6020820160008201516145f760008501826145d2565b50505050565b600060208201905061461260008301846145e1565b92915050565b7f4552433732313a20617070726f766520746f2063616c6c657200000000000000600082015250565b600061464e601983612e23565b915061465982614618565b602082019050919050565b6000602082019050818103600083015261467d81614641565b9050919050565b7f4552433732313a207472616e7366657220746f206e6f6e20455243373231526560008201527f63656976657220696d706c656d656e7465720000000000000000000000000000602082015250565b60006146e0603283612e23565b91506146eb82614684565b604082019050919050565b6000602082019050818103600083015261470f816146d3565b9050919050565b7f4f6e6c792063616c6c61626c65206279206f776e657200000000000000000000600082015250565b600061474c601683612e23565b915061475782614716565b602082019050919050565b6000602082019050818103600083015261477b8161473f565b9050919050565b7f43616e6e6f74207472616e7366657220746f2073656c66000000000000000000600082015250565b60006147b8601783612e23565b91506147c382614782565b602082019050919050565b600060208201905081810360008301526147e7816147ab565b9050919050565b7f4552433732313a206d696e7420746f20746865207a65726f2061646472657373600082015250565b6000614824602083612e23565b915061482f826147ee565b602082019050919050565b6000602082019050818103600083015261485381614817565b9050919050565b7f4552433732313a20746f6b656e20616c7265616479206d696e74656400000000600082015250565b6000614890601c83612e23565b915061489b8261485a565b602082019050919050565b600060208201905081810360008301526148bf81614883565b9050919050565b7f45524337323155524953746f726167653a2055524920736574206f66206e6f6e60008201527f6578697374656e7420746f6b656e000000000000000000000000000000000000602082015250565b6000614922602e83612e23565b915061492d826148c6565b604082019050919050565b6000602082019050818103600083015261495181614915565b9050919050565b600082825260208201905092915050565b600061497482613aac565b61497e8185614958565b935061498e818560208601612e34565b61499781612e5e565b840191505092915050565b60006080820190506149b76000830187612f5f565b6149c46020830186612f5f565b6149d1604083018561338b565b81810360608301526149e38184614969565b905095945050505050565b6000815190506149fd81612d89565b92915050565b600060208284031215614a1957614a18612d53565b5b6000614a27848285016149ee565b9150509291505056fea264697066735822122012523ab55b16a856dd29ac561556728fff58d189e6630782deab3ee0de2e8fdb64736f6c634300081a0033",
  "linkReferences": {},
  "deployedLinkReferences": {}
}